{"abi":[{"type":"constructor","inputs":[{"name":"_token","type":"address","internalType":"address"},{"name":"_permit2","type":"address","internalType":"address"}],"stateMutability":"nonpayable"},{"type":"function","name":"PERMIT2","inputs":[],"outputs":[{"name":"","type":"address","internalType":"address"}],"stateMutability":"view"},{"type":"function","name":"TOKEN","inputs":[],"outputs":[{"name":"","type":"address","internalType":"contract IERC20"}],"stateMutability":"view"},{"type":"function","name":"balances","inputs":[{"name":"user","type":"address","internalType":"address"}],"outputs":[{"name":"balance","type":"uint256","internalType":"uint256"}],"stateMutability":"view"},{"type":"function","name":"deposit","inputs":[{"name":"amount","type":"uint256","internalType":"uint256"}],"outputs":[],"stateMutability":"nonpayable"},{"type":"function","name":"depositWithPermit2","inputs":[{"name":"owner","type":"address","internalType":"address"},{"name":"amount","type":"uint256","internalType":"uint256"},{"name":"deadline","type":"uint256","internalType":"uint256"},{"name":"nonce","type":"uint256","internalType":"uint256"},{"name":"signature","type":"bytes","internalType":"bytes"}],"outputs":[],"stateMutability":"nonpayable"},{"type":"function","name":"depositors","inputs":[{"name":"","type":"uint256","internalType":"uint256"}],"outputs":[{"name":"","type":"address","internalType":"address"}],"stateMutability":"view"},{"type":"function","name":"getContractBalance","inputs":[],"outputs":[{"name":"","type":"uint256","internalType":"uint256"}],"stateMutability":"view"},{"type":"function","name":"getDepositorsCount","inputs":[],"outputs":[{"name":"","type":"uint256","internalType":"uint256"}],"stateMutability":"view"},{"type":"function","name":"getUserBalance","inputs":[{"name":"user","type":"address","internalType":"address"}],"outputs":[{"name":"","type":"uint256","internalType":"uint256"}],"stateMutability":"view"},{"type":"function","name":"withdraw","inputs":[{"name":"amount","type":"uint256","internalType":"uint256"}],"outputs":[],"stateMutability":"nonpayable"},{"type":"event","name":"Deposit","inputs":[{"name":"user","type":"address","indexed":true,"internalType":"address"},{"name":"amount","type":"uint256","indexed":false,"internalType":"uint256"}],"anonymous":false},{"type":"event","name":"PermitDeposit","inputs":[{"name":"user","type":"address","indexed":true,"internalType":"address"},{"name":"amount","type":"uint256","indexed":false,"internalType":"uint256"}],"anonymous":false},{"type":"event","name":"Withdraw","inputs":[{"name":"user","type":"address","indexed":true,"internalType":"address"},{"name":"amount","type":"uint256","indexed":false,"internalType":"uint256"}],"anonymous":false}],"bytecode":{"object":"0x60c03461014557601f610d0838819003918201601f19168301916001600160401b0383118484101761014957808492604094855283398101031261014557610052602061004b8361015d565b920161015d565b906001600160a01b03168015610100576001600160a01b038216156100bb5760805260a052604051610b969081610172823960805181818161014a0152818161037c015281816103d801528181610530015261086b015260a05181818161046f01526105ab0152f35b60405162461bcd60e51b815260206004820152601e60248201527f5065726d69743220616464726573732063616e6e6f74206265207a65726f00006044820152606490fd5b60405162461bcd60e51b815260206004820152601c60248201527f546f6b656e20616464726573732063616e6e6f74206265207a65726f000000006044820152606490fd5b5f80fd5b634e487b7160e01b5f52604160045260245ffd5b51906001600160a01b03821682036101455756fe6080806040526004361015610012575f80fd5b5f905f3560e01c90816327e235e3146109dc575080632e1a7d4d1461080357806347734892146107cc57806364e7c6601461049e5780636afdd850146104595780636f9fb98a146103ab57806382bfefc814610366578063933ee62614610348578063b6b55f251461010f5763e4b2fb791461008c575f80fd5b3461010c57602036600319011261010c576004359060015482101561010c576001548210156100f857600181527fb10e2d527612073b26eecdfd717e6a320cf44b4afac2b0732d9fcbe2b7fa0cf69091015460405160039290921b1c6001600160a01b03168152602090f35b634e487b7160e01b81526032600452602490fd5b80fd5b503461010c57602036600319011261010c5760043561012f811515610a7b565b604051636eb1769f60e11b81523360048201523060248201527f00000000000000000000000000000000000000000000000000000000000000006001600160a01b031690602081604481855afa801561033d5783918591610304575b50106102aa576020839133835282825260408320541561029c575b338352828252604083206101bb858254610b53565b90556064604051809481936323b872dd60e01b83523360048401523060248401528760448401525af1908115610291578391610262575b5015610227576040519081527fe1fffcc4923d04b559f4d29a8bfc6cda04eb5b0d3c460751c2402c5c5cc9109c60203392a280f35b60405162461bcd60e51b8152602060048201526013602482015272151c985b9cd9995c919c9bdb4819985a5b1959606a1b6044820152606490fd5b610284915060203d60201161028a575b61027c8183610a41565b810190610a63565b5f6101f2565b503d610272565b6040513d85823e3d90fd5b6102a533610ad5565b6101a6565b60405162461bcd60e51b815260206004820152602c60248201527f496e73756666696369656e7420616c6c6f77616e63652c20706c65617365206160448201526b1c1c1c9bdd9948199a5c9cdd60a21b6064820152608490fd5b9150506020813d602011610335575b8161032060209383610a41565b81010312610331578290515f61018b565b5f80fd5b3d9150610313565b6040513d86823e3d90fd5b503461010c578060031936011261010c576020600154604051908152f35b503461010c578060031936011261010c576040517f00000000000000000000000000000000000000000000000000000000000000006001600160a01b03168152602090f35b503461010c578060031936011261010c576040516370a0823160e01b8152306004820152906020826024817f00000000000000000000000000000000000000000000000000000000000000006001600160a01b03165afa90811561044d579061041a575b602090604051908152f35b506020813d602011610445575b8161043460209383610a41565b81010312610331576020905161040f565b3d9150610427565b604051903d90823e3d90fd5b503461010c578060031936011261010c576040517f00000000000000000000000000000000000000000000000000000000000000006001600160a01b03168152602090f35b50346103315760a0366003190112610331576104b8610a0f565b602435604435916084359267ffffffffffffffff841161033157366023850112156103315783600401359367ffffffffffffffff851161033157366024868301011161033157610509841515610a7b565b6001600160a01b03831694851561078757824211610742576040519161052e83610a25565b7f00000000000000000000000000000000000000000000000000000000000000006001600160a01b0316835260208301869052604051926060840167ffffffffffffffff81118582101761072e57604052835260208301916064358352604084019485526040519161059f83610a25565b308352602083018890527f00000000000000000000000000000000000000000000000000000000000000006001600160a01b031692833b15610331575f958361061f94602489958e610646610124976040519e8f9d8e9c8d9a63187945bd60e11b8c5260048c0190516020809160018060a01b0381511684520151910152565b5160448a015251606489015280516001600160a01b031660848901526020015160a4880152565b60c486015261010060e48601528261010486015201848401378181018301849052601f01601f191681010301925af18015610723576106e8575b507fe391e632f0c535fb9543412b49a49299087c915a9020b721a5dc29560e769930916020918486528583526040862054156106d9575b50838552848252604085206106cd828254610b53565b9055604051908152a280f35b6106e290610ad5565b5f6106b7565b6020919450916107195f7fe391e632f0c535fb9543412b49a49299087c915a9020b721a5dc29560e76993094610a41565b5f94915091610680565b6040513d5f823e3d90fd5b634e487b7160e01b5f52604160045260245ffd5b60405162461bcd60e51b815260206004820152601d60248201527f45524332305065726d69743a206578706972656420646561646c696e650000006044820152606490fd5b60405162461bcd60e51b815260206004820152601c60248201527f4f776e65722063616e6e6f74206265207a65726f2061646472657373000000006044820152606490fd5b34610331576020366003190112610331576001600160a01b036107ed610a0f565b165f525f602052602060405f2054604051908152f35b3461033157602036600319011261033157600435801561098657335f525f6020528060405f20541061094157335f525f60205260405f2080549082820391821161092d575560405163a9059cbb60e01b8152336004820152602481018290526020816044815f7f00000000000000000000000000000000000000000000000000000000000000006001600160a01b03165af1908115610723575f9161090e575b50156108d7576040519081527f884edad9ce6fa2440d8a54cc123490eb96d2768479d49ff9c7366125a942436460203392a2005b60405162461bcd60e51b815260206004820152600f60248201526e151c985b9cd9995c8819985a5b1959608a1b6044820152606490fd5b610927915060203d60201161028a5761027c8183610a41565b826108a3565b634e487b7160e01b5f52601160045260245ffd5b60405162461bcd60e51b815260206004820152601960248201527f496e73756666696369656e7420757365722062616c616e6365000000000000006044820152606490fd5b60405162461bcd60e51b815260206004820152602860248201527f5769746864726177616c20616d6f756e74206d75737420626520677265617465604482015267072207468616e20360c41b6064820152608490fd5b34610331576020366003190112610331576020906001600160a01b03610a00610a0f565b165f525f825260405f20548152f35b600435906001600160a01b038216820361033157565b6040810190811067ffffffffffffffff82111761072e57604052565b90601f8019910116810190811067ffffffffffffffff82111761072e57604052565b90816020910312610331575180151581036103315790565b15610a8257565b60405162461bcd60e51b815260206004820152602560248201527f4465706f73697420616d6f756e74206d75737420626520677265617465722074604482015264068616e20360dc1b6064820152608490fd5b6001546801000000000000000081101561072e5760018101600155600154811015610b3f5760015f527fb10e2d527612073b26eecdfd717e6a320cf44b4afac2b0732d9fcbe2b7fa0cf60180546001600160a01b0319166001600160a01b03909216919091179055565b634e487b7160e01b5f52603260045260245ffd5b9190820180921161092d5756fea264697066735822122048a8ad96ecc2401b07e6273e2c31489a102bc62f7460f86d753bd42351f56b7a64736f6c634300081e0033","linkReferences":{}},"methodIdentifiers":{"PERMIT2()":"6afdd850","TOKEN()":"82bfefc8","balances(address)":"27e235e3","deposit(uint256)":"b6b55f25","depositWithPermit2(address,uint256,uint256,uint256,bytes)":"64e7c660","depositors(uint256)":"e4b2fb79","getContractBalance()":"6f9fb98a","getDepositorsCount()":"933ee626","getUserBalance(address)":"47734892","withdraw(uint256)":"2e1a7d4d"},"id":12}